{
  "contractName": "Colleague",
  "abi": [
    {
      "constant": true,
      "inputs": [
        {
          "name": "",
          "type": "uint256"
        }
      ],
      "name": "Tags",
      "outputs": [
        {
          "name": "colleague",
          "type": "address"
        },
        {
          "name": "comment",
          "type": "string"
        }
      ],
      "payable": false,
      "stateMutability": "view",
      "type": "function"
    },
    {
      "constant": true,
      "inputs": [
        {
          "name": "",
          "type": "uint256"
        }
      ],
      "name": "Gossips",
      "outputs": [
        {
          "name": "colleague",
          "type": "address"
        },
        {
          "name": "comment",
          "type": "string"
        }
      ],
      "payable": false,
      "stateMutability": "view",
      "type": "function"
    },
    {
      "constant": true,
      "inputs": [
        {
          "name": "",
          "type": "uint256"
        }
      ],
      "name": "Appraises",
      "outputs": [
        {
          "name": "colleague",
          "type": "address"
        },
        {
          "name": "comment",
          "type": "string"
        }
      ],
      "payable": false,
      "stateMutability": "view",
      "type": "function"
    },
    {
      "constant": true,
      "inputs": [
        {
          "name": "",
          "type": "uint256"
        }
      ],
      "name": "Staffs",
      "outputs": [
        {
          "name": "staffId",
          "type": "uint256"
        },
        {
          "name": "staff",
          "type": "address"
        },
        {
          "name": "staffName",
          "type": "string"
        },
        {
          "name": "staffDescription",
          "type": "string"
        }
      ],
      "payable": false,
      "stateMutability": "view",
      "type": "function"
    },
    {
      "inputs": [],
      "payable": false,
      "stateMutability": "nonpayable",
      "type": "constructor"
    },
    {
      "anonymous": false,
      "inputs": [
        {
          "indexed": false,
          "name": "colleague",
          "type": "address"
        },
        {
          "indexed": false,
          "name": "staffName",
          "type": "string"
        },
        {
          "indexed": false,
          "name": "staffDescription",
          "type": "string"
        }
      ],
      "name": "AddStaff",
      "type": "event"
    },
    {
      "anonymous": false,
      "inputs": [
        {
          "indexed": false,
          "name": "colleague",
          "type": "address"
        },
        {
          "indexed": false,
          "name": "comment",
          "type": "string"
        }
      ],
      "name": "AppraiseStaff",
      "type": "event"
    },
    {
      "anonymous": false,
      "inputs": [
        {
          "indexed": false,
          "name": "colleague",
          "type": "address"
        },
        {
          "indexed": false,
          "name": "comment",
          "type": "string"
        }
      ],
      "name": "GossipStaff",
      "type": "event"
    },
    {
      "anonymous": false,
      "inputs": [
        {
          "indexed": false,
          "name": "colleague",
          "type": "address"
        },
        {
          "indexed": false,
          "name": "comment",
          "type": "string"
        }
      ],
      "name": "TagStaff",
      "type": "event"
    },
    {
      "constant": false,
      "inputs": [],
      "name": "kill",
      "outputs": [],
      "payable": false,
      "stateMutability": "nonpayable",
      "type": "function"
    },
    {
      "constant": false,
      "inputs": [
        {
          "name": "staff",
          "type": "address"
        },
        {
          "name": "staffName",
          "type": "string"
        },
        {
          "name": "staffDescription",
          "type": "string"
        }
      ],
      "name": "RegisterStaff",
      "outputs": [
        {
          "name": "",
          "type": "uint256"
        }
      ],
      "payable": false,
      "stateMutability": "nonpayable",
      "type": "function"
    },
    {
      "constant": false,
      "inputs": [
        {
          "name": "colleague",
          "type": "address"
        },
        {
          "name": "comment",
          "type": "string"
        }
      ],
      "name": "AddGossip",
      "outputs": [
        {
          "name": "",
          "type": "uint256"
        }
      ],
      "payable": false,
      "stateMutability": "nonpayable",
      "type": "function"
    },
    {
      "constant": false,
      "inputs": [
        {
          "name": "colleague",
          "type": "address"
        },
        {
          "name": "comment",
          "type": "string"
        }
      ],
      "name": "AddAppraise",
      "outputs": [
        {
          "name": "",
          "type": "uint256"
        }
      ],
      "payable": false,
      "stateMutability": "nonpayable",
      "type": "function"
    },
    {
      "constant": false,
      "inputs": [
        {
          "name": "colleague",
          "type": "address"
        },
        {
          "name": "comment",
          "type": "string"
        }
      ],
      "name": "AddTag",
      "outputs": [
        {
          "name": "",
          "type": "uint256"
        }
      ],
      "payable": false,
      "stateMutability": "nonpayable",
      "type": "function"
    },
    {
      "constant": true,
      "inputs": [
        {
          "name": "staffId",
          "type": "uint256"
        }
      ],
      "name": "getStaff",
      "outputs": [
        {
          "name": "",
          "type": "uint256"
        },
        {
          "name": "",
          "type": "address"
        },
        {
          "name": "",
          "type": "string"
        },
        {
          "name": "",
          "type": "string"
        }
      ],
      "payable": false,
      "stateMutability": "view",
      "type": "function"
    },
    {
      "constant": true,
      "inputs": [],
      "name": "getStaffLength",
      "outputs": [
        {
          "name": "",
          "type": "uint256"
        }
      ],
      "payable": false,
      "stateMutability": "view",
      "type": "function"
    }
  ],
  "bytecode": "0x608060405234801561001057600080fd5b5060008054600160a060020a031916331790556111db806100326000396000f3006080604052600436106100ae5763ffffffff7c01000000000000000000000000000000000000000000000000000000006000350416630a71bc7481146100b3578063135ec4bd1461017757806338392d4f146101eb57806341c0e1b5146102ae5780639e686c0d146102c5578063b33ceb2c146102da578063be00845a1461034e578063df3e5aaf14610366578063eac60b271461037e578063f351835d146103f2578063f4def44b14610522575b600080fd5b3480156100bf57600080fd5b5060408051602060046024803582810135601f810185900485028601850190965285855261016595833573ffffffffffffffffffffffffffffffffffffffff1695369560449491939091019190819084018382808284375050604080516020601f89358b018035918201839004830284018301909452808352979a99988101979196509182019450925082915084018382808284375094975061053a9650505050505050565b60408051918252519081900360200190f35b34801561018357600080fd5b5060408051602060046024803582810135601f810185900485028601850190965285855261016595833573ffffffffffffffffffffffffffffffffffffffff169536956044949193909101919081908401838280828437509497506107999650505050505050565b3480156101f757600080fd5b50610203600435610943565b604051808373ffffffffffffffffffffffffffffffffffffffff1673ffffffffffffffffffffffffffffffffffffffff16815260200180602001828103825283818151815260200191508051906020019080838360005b8381101561027257818101518382015260200161025a565b50505050905090810190601f16801561029f5780820380516001836020036101000a031916815260200191505b50935050505060405180910390f35b3480156102ba57600080fd5b506102c3610a13565b005b3480156102d157600080fd5b50610165610ab4565b3480156102e657600080fd5b5060408051602060046024803582810135601f810185900485028601850190965285855261016595833573ffffffffffffffffffffffffffffffffffffffff16953695604494919390910191908190840183828082843750949750610abb9650505050505050565b34801561035a57600080fd5b50610203600435610c65565b34801561037257600080fd5b50610203600435610c73565b34801561038a57600080fd5b5060408051602060046024803582810135601f810185900485028601850190965285855261016595833573ffffffffffffffffffffffffffffffffffffffff16953695604494919390910191908190840183828082843750949750610c819650505050505050565b3480156103fe57600080fd5b5061040a600435610dd6565b604051808581526020018473ffffffffffffffffffffffffffffffffffffffff1673ffffffffffffffffffffffffffffffffffffffff1681526020018060200180602001838103835285818151815260200191508051906020019080838360005b8381101561048357818101518382015260200161046b565b50505050905090810190601f1680156104b05780820380516001836020036101000a031916815260200191505b50838103825284518152845160209182019186019080838360005b838110156104e35781810151838201526020016104cb565b50505050905090810190601f1680156105105780820380516001836020036101000a031916815260200191505b50965050505050505060405180910390f35b34801561052e57600080fd5b5061040a600435610f3c565b600180546040805160808101825282815273ffffffffffffffffffffffffffffffffffffffff878116602080840191825293830188815260608401889052858701808855600097885284517fb10e2d527612073b26eecdfd717e6a320cf44b4afac2b0732d9fcbe2b7fa0cf66004890290810191825593517fb10e2d527612073b26eecdfd717e6a320cf44b4afac2b0732d9fcbe2b7fa0cf78501805473ffffffffffffffffffffffffffffffffffffffff1916919096161790945590518051919561062b937fb10e2d527612073b26eecdfd717e6a320cf44b4afac2b0732d9fcbe2b7fa0cf80192910190611117565b5060608201518051610647916003840191602090910190611117565b505050507f5eada4f871014ea69550e141542469b35dcd2fe73727f6e372b6fe649d31e63d858585604051808473ffffffffffffffffffffffffffffffffffffffff1673ffffffffffffffffffffffffffffffffffffffff1681526020018060200180602001838103835285818151815260200191508051906020019080838360005b838110156106e25781810151838201526020016106ca565b50505050905090810190601f16801561070f5780820380516001836020036101000a031916815260200191505b50838103825284518152845160209182019186019080838360005b8381101561074257818101518382015260200161072a565b50505050905090810190601f16801561076f5780820380516001836020036101000a031916815260200191505b509550505050505060405180910390a1600180549082011461078d57fe5b50506001549392505050565b600380546040805180820190915273ffffffffffffffffffffffffffffffffffffffff8581168252602080830186815260018501808755600096875284517fc2575a0e9e593c00f959f8c92f12db2869c3395a3b0502d05e2516446f71f85b60028802908101805473ffffffffffffffffffffffffffffffffffffffff1916929096169190911785559151805191959493610859937fc2575a0e9e593c00f959f8c92f12db2869c3395a3b0502d05e2516446f71f85c0192910190611117565b505050507f0f62dd383d9cb311b048c7fa8ea1cfdd361f7754fcc07b2304490c519b7e949c8484604051808373ffffffffffffffffffffffffffffffffffffffff1673ffffffffffffffffffffffffffffffffffffffff16815260200180602001828103825283818151815260200191508051906020019080838360005b838110156108ef5781810151838201526020016108d7565b50505050905090810190601f16801561091c5780820380516001836020036101000a031916815260200191505b50935050505060405180910390a1600354600182011461093857fe5b505060035492915050565b600480548290811061095157fe5b600091825260209182902060029182020180546001808301805460408051601f6000199584161561010002959095019092169690960492830187900487028101870190955281855273ffffffffffffffffffffffffffffffffffffffff90921695509193909190830182828015610a095780601f106109de57610100808354040283529160200191610a09565b820191906000526020600020905b8154815290600101906020018083116109ec57829003601f168201915b5050505050905082565b60005473ffffffffffffffffffffffffffffffffffffffff163314610a9957604080517f08c379a000000000000000000000000000000000000000000000000000000000815260206004820152600960248201527f4e6f74206f776e65720000000000000000000000000000000000000000000000604482015290519081900360640190fd5b60005473ffffffffffffffffffffffffffffffffffffffff16ff5b6001545b90565b600280546040805180820190915273ffffffffffffffffffffffffffffffffffffffff8581168252602080830186815260018501808755600087815285517f405787fa12a823e0f2b7631cc41b3ba8828b3321ca811111fa75cd3aa3bb5ace988802988901805473ffffffffffffffffffffffffffffffffffffffff19169190961617855591518051929791959493610b7b937f405787fa12a823e0f2b7631cc41b3ba8828b3321ca811111fa75cd3aa3bb5acf90930192910190611117565b505050507fe638ec2b87670cce87cca74fef45f463d596f4d494533dfab406b4fcca95684e8484604051808373ffffffffffffffffffffffffffffffffffffffff1673ffffffffffffffffffffffffffffffffffffffff16815260200180602001828103825283818151815260200191508051906020019080838360005b83811015610c11578181015183820152602001610bf9565b50505050905090810190601f168015610c3e5780820380516001836020036101000a031916815260200191505b50935050505060405180910390a16002546001820114610c5a57fe5b505060025492915050565b600280548290811061095157fe5b600380548290811061095157fe5b600480546040805180820190915273ffffffffffffffffffffffffffffffffffffffff8581168252602080830186815260018501808755600096875284517f8a35acfbc15ff81a39ae7d344fd709f28e8600b4aa8c65c6b64bfe7fe36bd19b60028802908101805473ffffffffffffffffffffffffffffffffffffffff1916929096169190911785559151805191959493610d41937f8a35acfbc15ff81a39ae7d344fd709f28e8600b4aa8c65c6b64bfe7fe36bd19c0192910190611117565b505050507f75385cc3339ee29d34b074c8d9c6ca236212f1f0030fbc4287fecbc2768476238484604051808373ffffffffffffffffffffffffffffffffffffffff1673ffffffffffffffffffffffffffffffffffffffff1681526020018060200182810382528381815181526020019150805190602001908083836000838110156108ef5781810151838201526020016108d7565b6001805482908110610de457fe5b6000918252602091829020600491909102018054600180830154600280850180546040805161010096831615969096026000190190911692909204601f810188900488028501880190925281845293965073ffffffffffffffffffffffffffffffffffffffff90911694919291830182828015610ea25780601f10610e7757610100808354040283529160200191610ea2565b820191906000526020600020905b815481529060010190602001808311610e8557829003601f168201915b5050505060038301805460408051602060026001851615610100026000190190941693909304601f8101849004840282018401909252818152949594935090830182828015610f325780601f10610f0757610100808354040283529160200191610f32565b820191906000526020600020905b815481529060010190602001808311610f1557829003601f168201915b5050505050905084565b600080606080600185815481101515610f5157fe5b906000526020600020906004020160000154600186815481101515610f7257fe5b600091825260209091206001600490920201810154815473ffffffffffffffffffffffffffffffffffffffff909116919088908110610fad57fe5b9060005260206000209060040201600201600188815481101515610fcd57fe5b9060005260206000209060040201600301818054600181600116156101000203166002900480601f0160208091040260200160405190810160405280929190818152602001828054600181600116156101000203166002900480156110735780601f1061104857610100808354040283529160200191611073565b820191906000526020600020905b81548152906001019060200180831161105657829003601f168201915b5050845460408051602060026001851615610100026000190190941693909304601f8101849004840282018401909252818152959750869450925084019050828280156111015780601f106110d657610100808354040283529160200191611101565b820191906000526020600020905b8154815290600101906020018083116110e457829003601f168201915b5050505050905093509350935093509193509193565b828054600181600116156101000203166002900490600052602060002090601f016020900481019282601f1061115857805160ff1916838001178555611185565b82800160010185558215611185579182015b8281111561118557825182559160200191906001019061116a565b50611191929150611195565b5090565b610ab891905b80821115611191576000815560010161119b5600a165627a7a72305820548fc2c92b7adadfdde128b364fb1e3df6349fbad60c05c384b4e16cc481986b0029",
  "source": "pragma solidity ^0.4.23;\r\n\r\ncontract Colleague {\r\n    address owner;\r\n    struct Staff {\r\n        uint staffId;\r\n        address staff;\r\n        string staffName;\r\n        string staffDescription;\r\n    }\r\n\r\n    struct Gossip {\r\n        address colleague;\r\n        string comment;\r\n    }\r\n    struct Appraise {\r\n        address colleague;\r\n        string comment;\r\n    }\r\n    struct Tag {\r\n        address colleague;\r\n        string comment;\r\n    }\r\n\r\n    Staff[] public Staffs;\r\n    Gossip[] public Gossips;\r\n    Appraise[] public Appraises;\r\n    Tag[] public Tags;\r\n    \r\n\r\n    constructor() public {\r\n        owner = msg.sender;\r\n    }\r\n    function kill() public {\r\n        require(msg.sender == owner,\"Not owner\");\r\n        selfdestruct(owner);\r\n    }\r\n\r\n    event AddStaff(\r\n        address colleague,\r\n        string staffName,\r\n        string staffDescription\r\n    );\r\n\r\n    event AppraiseStaff(\r\n        address colleague,\r\n        string comment\r\n    );\r\n\r\n    event GossipStaff(\r\n        address colleague,\r\n        string comment\r\n    );\r\n\r\n    event TagStaff(\r\n        address colleague,\r\n        string comment\r\n    );\r\n\r\n        \r\n\r\n    function RegisterStaff(address staff,string staffName,string staffDescription)\r\n     public returns(uint) {\r\n        uint initialLength = Staffs.length;\r\n\r\n        Staffs.push(Staff({\r\n            staffId : initialLength,\r\n            staff: staff,\r\n            staffName: staffName,\r\n            staffDescription : staffDescription\r\n        }));\r\n\r\n        emit AddStaff(staff,staffName,staffDescription);\r\n        assert(Staffs.length == initialLength + 1);\r\n        return Staffs.length;\r\n    }\r\n\r\n    function AddGossip(address colleague, string comment) public returns(uint) {\r\n        uint initialLength = Gossips.length;\r\n      \r\n        Gossips.push(Gossip({\r\n            colleague: colleague,\r\n            comment: comment\r\n        }));\r\n        \r\n        emit GossipStaff(colleague,comment);\r\n        assert(Gossips.length == initialLength + 1);\r\n        return Gossips.length;\r\n    }\r\n    \r\n    function AddAppraise(address colleague, string comment) public returns(uint) {\r\n        uint initialLength = Appraises.length;\r\n   \r\n        Appraises.push(Appraise({\r\n            colleague: colleague,\r\n            comment: comment\r\n        }));\r\n        \r\n        emit AppraiseStaff(colleague, comment);\r\n        assert(Appraises.length == initialLength + 1);\r\n        return Appraises.length;\r\n    }\r\n\r\n    function AddTag(address colleague, string comment) public returns(uint) {\r\n        uint initialLength = Tags.length;\r\n     \r\n        Tags.push(Tag({\r\n            colleague: colleague,\r\n            comment: comment\r\n        }));\r\n        \r\n        emit TagStaff(colleague, comment);\r\n        assert(Appraises.length == initialLength + 1);\r\n        return Appraises.length;\r\n    }\r\n    \r\n    function getStaff(uint staffId) public view returns( uint, address, string, string) {\r\n        return (\r\n            Staffs[staffId].staffId,\r\n            Staffs[staffId].staff,\r\n            Staffs[staffId].staffName,\r\n            Staffs[staffId].staffDescription\r\n          \r\n   \r\n        );\r\n    }\r\n    \r\n     \r\n    function getStaffLength() public view returns( uint) {\r\n        return Staffs.length;\r\n    }\r\n\r\n\r\n}",
  "sourcePath": "C:\\Users\\leon.cheng\\Documents\\truffleMarket\\Tcoin\\T-Coin\\final\\contracts\\Colleague.sol",
  "compiler": {
    "name": "solc",
    "version": "0.4.24+commit.e67f0147.Emscripten.clang"
  },
  "schemaVersion": "2.0.1",
  "updatedAt": "2018-09-07T05:31:41.250Z"
}